{
  "contractName": "CV",
  "abi": [
    {
      "constant": false,
      "inputs": [],
      "name": "kill",
      "outputs": [],
      "payable": false,
      "stateMutability": "nonpayable",
      "type": "function"
    },
    {
      "constant": true,
      "inputs": [],
      "name": "elementsAreSet",
      "outputs": [
        {
          "name": "",
          "type": "bool"
        }
      ],
      "payable": false,
      "stateMutability": "view",
      "type": "function"
    },
    {
      "anonymous": false,
      "inputs": [
        {
          "indexed": false,
          "name": "projectCtr",
          "type": "uint256"
        },
        {
          "indexed": false,
          "name": "heading",
          "type": "string"
        },
        {
          "indexed": false,
          "name": "desc",
          "type": "string"
        },
        {
          "indexed": false,
          "name": "url",
          "type": "string"
        },
        {
          "indexed": false,
          "name": "msg",
          "type": "string"
        }
      ],
      "name": "projectAdded",
      "type": "event"
    },
    {
      "anonymous": false,
      "inputs": [
        {
          "indexed": false,
          "name": "recCtr",
          "type": "uint256"
        },
        {
          "indexed": true,
          "name": "sender",
          "type": "address"
        },
        {
          "indexed": false,
          "name": "rec",
          "type": "string"
        },
        {
          "indexed": false,
          "name": "auth",
          "type": "string"
        },
        {
          "indexed": false,
          "name": "contact",
          "type": "string"
        }
      ],
      "name": "recommendationReceieved",
      "type": "event"
    },
    {
      "anonymous": false,
      "inputs": [
        {
          "indexed": false,
          "name": "recCtr",
          "type": "uint256"
        },
        {
          "indexed": false,
          "name": "giver",
          "type": "string"
        }
      ],
      "name": "recommendationDeleted",
      "type": "event"
    },
    {
      "constant": false,
      "inputs": [
        {
          "name": "heading",
          "type": "string"
        },
        {
          "name": "description",
          "type": "string"
        },
        {
          "name": "URL",
          "type": "string"
        }
      ],
      "name": "addProject",
      "outputs": [],
      "payable": false,
      "stateMutability": "nonpayable",
      "type": "function"
    },
    {
      "constant": false,
      "inputs": [
        {
          "name": "rec",
          "type": "string"
        },
        {
          "name": "auth",
          "type": "string"
        },
        {
          "name": "contact",
          "type": "string"
        }
      ],
      "name": "WriteRecommendation",
      "outputs": [],
      "payable": false,
      "stateMutability": "nonpayable",
      "type": "function"
    },
    {
      "constant": false,
      "inputs": [
        {
          "name": "recCtr",
          "type": "uint256"
        }
      ],
      "name": "deleteRecommendation",
      "outputs": [],
      "payable": false,
      "stateMutability": "nonpayable",
      "type": "function"
    },
    {
      "constant": true,
      "inputs": [],
      "name": "getAddress",
      "outputs": [
        {
          "name": "",
          "type": "string"
        }
      ],
      "payable": false,
      "stateMutability": "view",
      "type": "function"
    },
    {
      "constant": true,
      "inputs": [],
      "name": "getDescription",
      "outputs": [
        {
          "name": "",
          "type": "string"
        }
      ],
      "payable": false,
      "stateMutability": "view",
      "type": "function"
    },
    {
      "constant": true,
      "inputs": [],
      "name": "getTitle",
      "outputs": [
        {
          "name": "",
          "type": "string"
        }
      ],
      "payable": false,
      "stateMutability": "view",
      "type": "function"
    },
    {
      "constant": true,
      "inputs": [],
      "name": "getAuthor",
      "outputs": [
        {
          "name": "",
          "type": "string"
        },
        {
          "name": "",
          "type": "string"
        }
      ],
      "payable": false,
      "stateMutability": "view",
      "type": "function"
    }
  ],
  "bytecode": "0x6060604052336000806101000a81548173ffffffffffffffffffffffffffffffffffffffff021916908373ffffffffffffffffffffffffffffffffffffffff160217905550610ff4806100536000396000f300606060405260043610610099576000357c0100000000000000000000000000000000000000000000000000000000900463ffffffff1680631a0925411461009e57806322b864411461012c57806338cc48311461020f57806341c0e1b51461029d5780634e8fc7ab146102b25780637e9aef5314610395578063a5faa125146103c2578063de2bb3d3146104bc578063ff3c1a8f146104df575b600080fd5b34156100a957600080fd5b6100b161056d565b6040518080602001828103825283818151815260200191508051906020019080838360005b838110156100f15780820151818401526020810190506100d6565b50505050905090810190601f16801561011e5780820380516001836020036101000a031916815260200191505b509250505060405180910390f35b341561013757600080fd5b61020d600480803590602001908201803590602001908080601f0160208091040260200160405190810160405280939291908181526020018383808284378201915050505050509190803590602001908201803590602001908080601f0160208091040260200160405190810160405280939291908181526020018383808284378201915050505050509190803590602001908201803590602001908080601f016020809104026020016040519081016040528093929190818152602001838380828437820191505050505050919050506105d7565b005b341561021a57600080fd5b610222610866565b6040518080602001828103825283818151815260200191508051906020019080838360005b83811015610262578082015181840152602081019050610247565b50505050905090810190601f16801561028f5780820380516001836020036101000a031916815260200191505b509250505060405180910390f35b34156102a857600080fd5b6102b06108a9565b005b34156102bd57600080fd5b610393600480803590602001908201803590602001908080601f0160208091040260200160405190810160405280939291908181526020018383808284378201915050505050509190803590602001908201803590602001908080601f0160208091040260200160405190810160405280939291908181526020018383808284378201915050505050509190803590602001908201803590602001908080601f0160208091040260200160405190810160405280939291908181526020018383808284378201915050505050509190505061093a565b005b34156103a057600080fd5b6103a8610c3f565b604051808215151515815260200191505060405180910390f35b34156103cd57600080fd5b6103d5610cf3565b604051808060200180602001838103835285818151815260200191508051906020019080838360005b838110156104195780820151818401526020810190506103fe565b50505050905090810190601f1680156104465780820380516001836020036101000a031916815260200191505b50838103825284818151815260200191508051906020019080838360005b8381101561047f578082015181840152602081019050610464565b50505050905090810190601f1680156104ac5780820380516001836020036101000a031916815260200191505b5094505050505060405180910390f35b34156104c757600080fd5b6104dd6004808035906020019091905050610d77565b005b34156104ea57600080fd5b6104f2610eb8565b6040518080602001828103825283818151815260200191508051906020019080838360005b83811015610532578082015181840152602081019050610517565b50505050905090810190601f16801561055f5780820380516001836020036101000a031916815260200191505b509250505060405180910390f35b610575610efb565b606060405190810160405280603881526020017f48657265206973206d7920435620666f7220636f6e73696465726174696f6e2081526020017f696e2074686520426c6f636b636861696e20646f6d61696e0000000000000000815250905090565b3373ffffffffffffffffffffffffffffffffffffffff166000809054906101000a900473ffffffffffffffffffffffffffffffffffffffff1673ffffffffffffffffffffffffffffffffffffffff1614151561086157600160026000828254019250508190555060606040519081016040528084815260200183815260200182815250600460006002548152602001908152602001600020600082015181600001908051906020019061068b929190610f0f565b5060208201518160010190805190602001906106a8929190610f0f565b5060408201518160020190805190602001906106c5929190610f0f565b509050503373ffffffffffffffffffffffffffffffffffffffff167f698a7017bbd9da62c801caaab5bbe5b231d1c48dc189f112e38db61efd3aa27760025485858560405180858152602001806020018060200180602001848103845287818151815260200191508051906020019080838360005b8381101561075557808201518184015260208101905061073a565b50505050905090810190601f1680156107825780820380516001836020036101000a031916815260200191505b50848103835286818151815260200191508051906020019080838360005b838110156107bb5780820151818401526020810190506107a0565b50505050905090810190601f1680156107e85780820380516001836020036101000a031916815260200191505b50848103825285818151815260200191508051906020019080838360005b83811015610821578082015181840152602081019050610806565b50505050905090810190601f16801561084e5780820380516001836020036101000a031916815260200191505b5097505050505050505060405180910390a25b505050565b61086e610efb565b6040805190810160405280601781526020017f687474703a2f2f7777772e75726a6170617761722e696e000000000000000000815250905090565b6000809054906101000a900473ffffffffffffffffffffffffffffffffffffffff1673ffffffffffffffffffffffffffffffffffffffff163373ffffffffffffffffffffffffffffffffffffffff161415610938576000809054906101000a900473ffffffffffffffffffffffffffffffffffffffff1673ffffffffffffffffffffffffffffffffffffffff16ff5b565b6000809054906101000a900473ffffffffffffffffffffffffffffffffffffffff1673ffffffffffffffffffffffffffffffffffffffff163373ffffffffffffffffffffffffffffffffffffffff161415610c3a573373ffffffffffffffffffffffffffffffffffffffff166000809054906101000a900473ffffffffffffffffffffffffffffffffffffffff1673ffffffffffffffffffffffffffffffffffffffff161415610c395760018060008282540192505081905550606060405190810160405280848152602001838152602001828152506003600060015481526020019081526020016000206000820151816000019080519060200190610a41929190610f0f565b506020820151816001019080519060200190610a5e929190610f0f565b506040820151816002019080519060200190610a7b929190610f0f565b509050507fb5a4422f746c7f2627455f082e7977c1bbf5c664be99d9dcf9d9deff034d90e26001548484846040518085815260200180602001806020018060200180602001858103855288818151815260200191508051906020019080838360005b83811015610af8578082015181840152602081019050610add565b50505050905090810190601f168015610b255780820380516001836020036101000a031916815260200191505b50858103845287818151815260200191508051906020019080838360005b83811015610b5e578082015181840152602081019050610b43565b50505050905090810190601f168015610b8b5780820380516001836020036101000a031916815260200191505b50858103835286818151815260200191508051906020019080838360005b83811015610bc4578082015181840152602081019050610ba9565b50505050905090810190601f168015610bf15780820380516001836020036101000a031916815260200191505b50858103825260018152602001807f44000000000000000000000000000000000000000000000000000000000000008152506020019850505050505050505060405180910390a15b5b505050565b6000610c49610f8f565b610c51610efb565b610c59610efb565b610c6161056d565b9250600083511415610c765760009350610ced565b610c7e610eb8565b9250600083511415610c935760009350610ced565b610c9b610cf3565b91509150819250600083511415610cb55760009350610ced565b809250600083511415610ccb5760009350610ced565b610cd3610866565b9250600083511415610ce85760009350610ced565b600193505b50505090565b610cfb610efb565b610d03610efb565b6040805190810160405280600a81526020017f55726a61205061776172000000000000000000000000000000000000000000008152506040805190810160405280601381526020017f75726a61706177617240676d61696c2e636f6d00000000000000000000000000815250915091509091565b60003373ffffffffffffffffffffffffffffffffffffffff166000809054906101000a900473ffffffffffffffffffffffffffffffffffffffff1673ffffffffffffffffffffffffffffffffffffffff161415610eb45760025482111515610eb3576004600083815260200190815260200160002060010190507f92e703732675cba4bcb7d17607036d70b0b9df1e9974246e53b9bdae3ead51d182826040518083815260200180602001828103825283818154600181600116156101000203166002900481526020019150805460018160011615610100020316600290048015610ea35780601f10610e7857610100808354040283529160200191610ea3565b820191906000526020600020905b815481529060010190602001808311610e8657829003601f168201915b5050935050505060405180910390a15b5b5050565b610ec0610efb565b6040805190810160405280600581526020017f4d79204356000000000000000000000000000000000000000000000000000000815250905090565b602060405190810160405280600081525090565b828054600181600116156101000203166002900490600052602060002090601f016020900481019282601f10610f5057805160ff1916838001178555610f7e565b82800160010185558215610f7e579182015b82811115610f7d578251825591602001919060010190610f62565b5b509050610f8b9190610fa3565b5090565b602060405190810160405280600081525090565b610fc591905b80821115610fc1576000816000905550600101610fa9565b5090565b905600a165627a7a72305820f6bb406c740fa9a90a43184f3c8501407b21df1b5b98db95c6b911ca8729b6c60029",
  "source": "pragma solidity ^0.4.18;\r\n\r\nimport \"./CVExtender.sol\";\r\nimport \"./mortal.sol\";\r\n\r\ncontract CV is CVExtender,mortal {\r\n    uint256 projectCounter;\r\n    uint256 recCounter;\r\n    struct project{\r\n        string _heading;\r\n        string _description;\r\n        string _url;\r\n    }\r\n    struct recommendation{\r\n        string _rec;\r\n        string _giver;\r\n        string _contact;\r\n    }\r\n\r\n    mapping (uint256 => project) my_projects;\r\n    mapping (uint256 => recommendation) my_recommendations;\r\n\r\n    event projectAdded(uint256 projectCtr, string heading, string desc, string url,string msg);\r\n    event recommendationReceieved(uint256 recCtr,address indexed sender,string rec, string auth, string contact);\r\n    event recommendationDeleted(uint256 recCtr,string giver);\r\n\r\n\r\n    function addProject(string heading, string description, string URL) onlyowner public{\r\n        if(owner==msg.sender){\r\n                projectCounter+=1;\r\n                my_projects[projectCounter]=project(heading,description,URL);\r\n                projectAdded(projectCounter,heading,description,URL,\"D\");\r\n            }\r\n          \r\n            \r\n        }  \r\n    \r\n    function WriteRecommendation(string rec, string auth, string contact) public{\r\n       if(owner!=msg.sender){\r\n                recCounter+=1;\r\n                my_recommendations[recCounter]=recommendation(rec,auth,contact);\r\n                recommendationReceieved(recCounter,msg.sender,rec,auth,contact);\r\n            }\r\n            \r\n        } \r\n     function deleteRecommendation(uint256 recCtr) public{\r\n       if(owner==msg.sender){\r\n           if(recCtr<=recCounter){\r\n               string giv=my_recommendations[recCtr]._giver;\r\n              \r\n           recommendationDeleted(recCtr,giv);    \r\n          \r\n        \r\n        \r\n           }\r\n        }\r\n            \r\n        } \r\n   \r\n   \r\n    function getAddress() public view returns(string) {\r\n        return \"http://www.urjapawar.in\";\r\n    }\r\n\r\n    function getDescription() public view returns(string) {\r\n        return \"Here is my CV for consideration in the Blockchain domain\";\r\n    }\r\n    function getTitle() public view returns(string) {\r\n        return \"My CV\";\r\n    }\r\n    function getAuthor() public view returns(string, string) {\r\n        return (\"Urja Pawar\", \"urjapawar@gmail.com\");\r\n    }\r\n}\r\n",
  "sourcePath": "E:\\Important documents\\Blockchain\\truffle_eth_class2-master\\s12\\already\\contracts\\CV.sol",
  "compiler": {
    "name": "solc",
    "version": "0.4.19+commit.c4cbbb05.Emscripten.clang"
  },
  "schemaVersion": "2.0.0",
  "updatedAt": "2018-04-22T05:24:33.775Z"
}