{
  "contractName": "MultiSig",
  "abi": [
    {
      "constant": true,
      "inputs": [],
      "name": "creator",
      "outputs": [
        {
          "name": "",
          "type": "address"
        }
      ],
      "payable": false,
      "stateMutability": "view",
      "type": "function"
    },
    {
      "payable": true,
      "stateMutability": "payable",
      "type": "fallback"
    },
    {
      "anonymous": false,
      "inputs": [
        {
          "indexed": true,
          "name": "_contributor",
          "type": "address"
        },
        {
          "indexed": false,
          "name": "_valueInWei",
          "type": "uint256"
        }
      ],
      "name": "ReceivedContribution",
      "type": "event"
    },
    {
      "anonymous": false,
      "inputs": [
        {
          "indexed": true,
          "name": "_beneficiary",
          "type": "address"
        },
        {
          "indexed": false,
          "name": "_valueInWei",
          "type": "uint256"
        }
      ],
      "name": "ProposalSubmitted",
      "type": "event"
    },
    {
      "anonymous": false,
      "inputs": [
        {
          "indexed": true,
          "name": "_approver",
          "type": "address"
        },
        {
          "indexed": true,
          "name": "_beneficiary",
          "type": "address"
        },
        {
          "indexed": false,
          "name": "_valueInWei",
          "type": "uint256"
        }
      ],
      "name": "ProposalApproved",
      "type": "event"
    },
    {
      "anonymous": false,
      "inputs": [
        {
          "indexed": true,
          "name": "_rejecter",
          "type": "address"
        },
        {
          "indexed": true,
          "name": "_beneficiary",
          "type": "address"
        },
        {
          "indexed": false,
          "name": "_valueInWei",
          "type": "uint256"
        }
      ],
      "name": "ProposalRejected",
      "type": "event"
    },
    {
      "anonymous": false,
      "inputs": [
        {
          "indexed": true,
          "name": "_beneficiary",
          "type": "address"
        },
        {
          "indexed": false,
          "name": "_valueInWei",
          "type": "uint256"
        }
      ],
      "name": "WithdrawPerformed",
      "type": "event"
    },
    {
      "constant": false,
      "inputs": [],
      "name": "endContributionPeriod",
      "outputs": [],
      "payable": false,
      "stateMutability": "nonpayable",
      "type": "function"
    },
    {
      "constant": false,
      "inputs": [
        {
          "name": "_valueInWei",
          "type": "uint256"
        }
      ],
      "name": "submitProposal",
      "outputs": [],
      "payable": false,
      "stateMutability": "nonpayable",
      "type": "function"
    },
    {
      "constant": true,
      "inputs": [],
      "name": "listOpenBeneficiariesProposals",
      "outputs": [
        {
          "name": "",
          "type": "address[]"
        }
      ],
      "payable": false,
      "stateMutability": "view",
      "type": "function"
    },
    {
      "constant": true,
      "inputs": [
        {
          "name": "_beneficiary",
          "type": "address"
        }
      ],
      "name": "getBeneficiaryProposal",
      "outputs": [
        {
          "name": "",
          "type": "uint256"
        }
      ],
      "payable": false,
      "stateMutability": "view",
      "type": "function"
    },
    {
      "constant": true,
      "inputs": [],
      "name": "listContributors",
      "outputs": [
        {
          "name": "",
          "type": "address[]"
        }
      ],
      "payable": false,
      "stateMutability": "view",
      "type": "function"
    },
    {
      "constant": true,
      "inputs": [
        {
          "name": "_contributor",
          "type": "address"
        }
      ],
      "name": "getContributorAmount",
      "outputs": [
        {
          "name": "",
          "type": "uint256"
        }
      ],
      "payable": false,
      "stateMutability": "view",
      "type": "function"
    },
    {
      "constant": false,
      "inputs": [
        {
          "name": "_beneficiary",
          "type": "address"
        }
      ],
      "name": "approve",
      "outputs": [],
      "payable": false,
      "stateMutability": "nonpayable",
      "type": "function"
    },
    {
      "constant": false,
      "inputs": [
        {
          "name": "_beneficiary",
          "type": "address"
        }
      ],
      "name": "reject",
      "outputs": [],
      "payable": false,
      "stateMutability": "nonpayable",
      "type": "function"
    },
    {
      "constant": false,
      "inputs": [
        {
          "name": "_valueInWei",
          "type": "uint256"
        }
      ],
      "name": "withdraw",
      "outputs": [],
      "payable": false,
      "stateMutability": "nonpayable",
      "type": "function"
    },
    {
      "constant": true,
      "inputs": [],
      "name": "owner",
      "outputs": [
        {
          "name": "",
          "type": "address"
        }
      ],
      "payable": false,
      "stateMutability": "view",
      "type": "function"
    },
    {
      "constant": true,
      "inputs": [],
      "name": "open",
      "outputs": [
        {
          "name": "",
          "type": "bool"
        }
      ],
      "payable": false,
      "stateMutability": "view",
      "type": "function"
    },
    {
      "constant": true,
      "inputs": [],
      "name": "getBal",
      "outputs": [
        {
          "name": "",
          "type": "uint256"
        }
      ],
      "payable": false,
      "stateMutability": "view",
      "type": "function"
    },
    {
      "constant": true,
      "inputs": [],
      "name": "getcheckl",
      "outputs": [
        {
          "name": "",
          "type": "uint256"
        }
      ],
      "payable": false,
      "stateMutability": "view",
      "type": "function"
    },
    {
      "constant": true,
      "inputs": [],
      "name": "getBalance",
      "outputs": [
        {
          "name": "",
          "type": "uint256"
        }
      ],
      "payable": false,
      "stateMutability": "view",
      "type": "function"
    },
    {
      "constant": true,
      "inputs": [],
      "name": "getApproved",
      "outputs": [
        {
          "name": "",
          "type": "uint256"
        }
      ],
      "payable": false,
      "stateMutability": "view",
      "type": "function"
    },
    {
      "constant": true,
      "inputs": [],
      "name": "getProposed",
      "outputs": [
        {
          "name": "",
          "type": "uint256"
        }
      ],
      "payable": false,
      "stateMutability": "view",
      "type": "function"
    },
    {
      "constant": true,
      "inputs": [
        {
          "name": "_signer",
          "type": "address"
        },
        {
          "name": "_beneficiary",
          "type": "address"
        }
      ],
      "name": "getSignerVote",
      "outputs": [
        {
          "name": "",
          "type": "uint256"
        }
      ],
      "payable": false,
      "stateMutability": "view",
      "type": "function"
    }
  ],
  "bytecode": "0x606060405260606040519081016040528073fa3c6a1d480a14c546f12cdbb6d1bacbf02a161073ffffffffffffffffffffffffffffffffffffffff168152602001732f47343208d8db38a64f49d7384ce70367fc98c073ffffffffffffffffffffffffffffffffffffffff168152602001737c0e7b2418141f492653c6bf9ced144c338ba74073ffffffffffffffffffffffffffffffffffffffff168152506000906003620000b092919062000104565b5033600360006101000a81548173ffffffffffffffffffffffffffffffffffffffff021916908373ffffffffffffffffffffffffffffffffffffffff1602179055503415620000fe57600080fd5b620001cc565b826003810192821562000173579160200282015b82811115620001725782518260006101000a81548173ffffffffffffffffffffffffffffffffffffffff021916908373ffffffffffffffffffffffffffffffffffffffff1602179055509160200191906001019062000118565b5b50905062000182919062000186565b5090565b620001c991905b80821115620001c557600081816101000a81549073ffffffffffffffffffffffffffffffffffffffff0219169055506001016200018d565b5090565b90565b61393a80620001dc6000396000f3006060604052600436106100fc576000357c0100000000000000000000000000000000000000000000000000000000900463ffffffff16806302b110821461027757806302d05d3f1461028c57806312065fe0146102e1578063120a67551461030a578063237819fe1461033357806325caa2621461039d5780632e1a7d4d146103c65780632e518464146103e957806359109b6414610436578063736d95aa146104a0578063806a66de146104c357806386b81eb6146104ec5780638da5cb5b14610558578063ab0da5a9146105ad578063c651aada146105e6578063d07b77b514610633578063daea85c51461065c578063fcfff16f14610695575b6000801515600360149054906101000a900460ff16151514151561011f57600080fd5b60003411151561012e57600080fd5b600760003373ffffffffffffffffffffffffffffffffffffffff1673ffffffffffffffffffffffffffffffffffffffff16815260200190815260200160002054905060008114156101dd57600a805480600101828161018d919061387d565b9160005260206000209001600033909190916101000a81548173ffffffffffffffffffffffffffffffffffffffff021916908373ffffffffffffffffffffffffffffffffffffffff160217905550505b348101905080600760003373ffffffffffffffffffffffffffffffffffffffff1673ffffffffffffffffffffffffffffffffffffffff168152602001908152602001600020819055503373ffffffffffffffffffffffffffffffffffffffff167f4af4040804455d5519363ab32562d3354dc05571e414cec4d799a581d6e6b3a7346040518082815260200191505060405180910390a250005b341561028257600080fd5b61028a6106c2565b005b341561029757600080fd5b61029f610835565b604051808273ffffffffffffffffffffffffffffffffffffffff1673ffffffffffffffffffffffffffffffffffffffff16815260200191505060405180910390f35b34156102ec57600080fd5b6102f461085b565b6040518082815260200191505060405180910390f35b341561031557600080fd5b61031d610865565b6040518082815260200191505060405180910390f35b341561033e57600080fd5b61034661086f565b6040518080602001828103825283818151815260200191508051906020019060200280838360005b8381101561038957808201518184015260208101905061036e565b505050509050019250505060405180910390f35b34156103a857600080fd5b6103b0610903565b6040518082815260200191505060405180910390f35b34156103d157600080fd5b6103e76004808035906020019091905050610922565b005b34156103f457600080fd5b610420600480803573ffffffffffffffffffffffffffffffffffffffff16906020019091905050610df1565b6040518082815260200191505060405180910390f35b341561044157600080fd5b610449610e3a565b6040518080602001828103825283818151815260200191508051906020019060200280838360005b8381101561048c578082015181840152602081019050610471565b505050509050019250505060405180910390f35b34156104ab57600080fd5b6104c16004808035906020019091905050610ece565b005b34156104ce57600080fd5b6104d66115f7565b6040518082815260200191505060405180910390f35b34156104f757600080fd5b610542600480803573ffffffffffffffffffffffffffffffffffffffff1690602001909190803573ffffffffffffffffffffffffffffffffffffffff16906020019091905050611601565b6040518082815260200191505060405180910390f35b341561056357600080fd5b61056b611966565b604051808273ffffffffffffffffffffffffffffffffffffffff1673ffffffffffffffffffffffffffffffffffffffff16815260200191505060405180910390f35b34156105b857600080fd5b6105e4600480803573ffffffffffffffffffffffffffffffffffffffff16906020019091905050611990565b005b34156105f157600080fd5b61061d600480803573ffffffffffffffffffffffffffffffffffffffff169060200190919050506128d0565b6040518082815260200191505060405180910390f35b341561063e57600080fd5b61064661291c565b6040518082815260200191505060405180910390f35b341561066757600080fd5b610693600480803573ffffffffffffffffffffffffffffffffffffffff16906020019091905050612926565b005b34156106a057600080fd5b6106a8613866565b604051808215151515815260200191505060405180910390f35b6000806003811015156106d157fe5b0160009054906101000a900473ffffffffffffffffffffffffffffffffffffffff1673ffffffffffffffffffffffffffffffffffffffff163373ffffffffffffffffffffffffffffffffffffffff16148061078857506000600160038110151561073757fe5b0160009054906101000a900473ffffffffffffffffffffffffffffffffffffffff1673ffffffffffffffffffffffffffffffffffffffff163373ffffffffffffffffffffffffffffffffffffffff16145b806107ef57506000600260038110151561079e57fe5b0160009054906101000a900473ffffffffffffffffffffffffffffffffffffffff1673ffffffffffffffffffffffffffffffffffffffff163373ffffffffffffffffffffffffffffffffffffffff16145b15156107fa57600080fd5b6001600360146101000a81548160ff0219169083151502179055503073ffffffffffffffffffffffffffffffffffffffff1631600481905550565b600360009054906101000a900473ffffffffffffffffffffffffffffffffffffffff1681565b6000600454905090565b6000600b54905090565b6108776138a9565b600a8054806020026020016040519081016040528092919081815260200182805480156108f957602002820191906000526020600020905b8160009054906101000a900473ffffffffffffffffffffffffffffffffffffffff1673ffffffffffffffffffffffffffffffffffffffff16815260200190600101908083116108af575b5050505050905090565b60003073ffffffffffffffffffffffffffffffffffffffff1631905090565b60003390506000600860008373ffffffffffffffffffffffffffffffffffffffff1673ffffffffffffffffffffffffffffffffffffffff168152602001908152602001600020600001541415151561097957600080fd5b6001600860008373ffffffffffffffffffffffffffffffffffffffff1673ffffffffffffffffffffffffffffffffffffffff16815260200190815260200160002060010160009054906101000a900460ff1660ff16148015610a8a57506001600860008373ffffffffffffffffffffffffffffffffffffffff1673ffffffffffffffffffffffffffffffffffffffff16815260200190815260200160002060010160019054906101000a900460ff1660ff161480610a8957506001600860008373ffffffffffffffffffffffffffffffffffffffff1673ffffffffffffffffffffffffffffffffffffffff16815260200190815260200160002060010160029054906101000a900460ff1660ff16145b5b80610b4557506001600860008373ffffffffffffffffffffffffffffffffffffffff1673ffffffffffffffffffffffffffffffffffffffff16815260200190815260200160002060010160019054906101000a900460ff1660ff16148015610b4457506001600860008373ffffffffffffffffffffffffffffffffffffffff1673ffffffffffffffffffffffffffffffffffffffff16815260200190815260200160002060010160029054906101000a900460ff1660ff16145b5b1515610b5057600080fd5b3073ffffffffffffffffffffffffffffffffffffffff163182101515610b7557600080fd5b600860008273ffffffffffffffffffffffffffffffffffffffff1673ffffffffffffffffffffffffffffffffffffffff168152602001908152602001600020600001548211151515610bc657600080fd5b60011515600860008373ffffffffffffffffffffffffffffffffffffffff1673ffffffffffffffffffffffffffffffffffffffff16815260200190815260200160002060010160039054906101000a900460ff16151514151515610c2957600080fd5b8073ffffffffffffffffffffffffffffffffffffffff166108fc839081150290604051600060405180830381858888f193505050501515610c6957600080fd5b600860008273ffffffffffffffffffffffffffffffffffffffff1673ffffffffffffffffffffffffffffffffffffffff16815260200190815260200160002060000154821415610d13576001600860008373ffffffffffffffffffffffffffffffffffffffff1673ffffffffffffffffffffffffffffffffffffffff16815260200190815260200160002060010160036101000a81548160ff021916908315150217905550610d9f565b81600860008373ffffffffffffffffffffffffffffffffffffffff1673ffffffffffffffffffffffffffffffffffffffff1681526020019081526020016000206000015403600860008373ffffffffffffffffffffffffffffffffffffffff1673ffffffffffffffffffffffffffffffffffffffff168152602001908152602001600020600001819055505b3373ffffffffffffffffffffffffffffffffffffffff167ffca010261c61503eba494501406a4775d0887b49857dc75c92d1cc92a20e4e83836040518082815260200191505060405180910390a25050565b6000600760008373ffffffffffffffffffffffffffffffffffffffff1673ffffffffffffffffffffffffffffffffffffffff168152602001908152602001600020549050919050565b610e426138a9565b6009805480602002602001604051908101604052809291908181526020018280548015610ec457602002820191906000526020600020905b8160009054906101000a900473ffffffffffffffffffffffffffffffffffffffff1673ffffffffffffffffffffffffffffffffffffffff1681526020019060010190808311610e7a575b5050505050905090565b60008060008060011515600360149054906101000a900460ff161515141515610ef657600080fd5b600085111515610f0557600080fd5b60648502600b81905550600454600b54811515610f1e57fe5b04600b81905550600a600b5411151515610f3757600080fd5b33935084600654600554010160045410151515610f5357600080fd5b600080600381101515610f6257fe5b0160009054906101000a900473ffffffffffffffffffffffffffffffffffffffff1673ffffffffffffffffffffffffffffffffffffffff168473ffffffffffffffffffffffffffffffffffffffff161415801561101c575060006001600381101515610fca57fe5b0160009054906101000a900473ffffffffffffffffffffffffffffffffffffffff1673ffffffffffffffffffffffffffffffffffffffff168473ffffffffffffffffffffffffffffffffffffffff1614155b801561108557506000600260038110151561103357fe5b0160009054906101000a900473ffffffffffffffffffffffffffffffffffffffff1673ffffffffffffffffffffffffffffffffffffffff168473ffffffffffffffffffffffffffffffffffffffff1614155b151561109057600080fd5b600860008573ffffffffffffffffffffffffffffffffffffffff1673ffffffffffffffffffffffffffffffffffffffff16815260200190815260200160002060010160039054906101000a900460ff1692506002600860008673ffffffffffffffffffffffffffffffffffffffff1673ffffffffffffffffffffffffffffffffffffffff16815260200190815260200160002060010160009054906101000a900460ff1660ff161480156111f357506002600860008673ffffffffffffffffffffffffffffffffffffffff1673ffffffffffffffffffffffffffffffffffffffff16815260200190815260200160002060010160019054906101000a900460ff1660ff1614806111f257506002600860008673ffffffffffffffffffffffffffffffffffffffff1673ffffffffffffffffffffffffffffffffffffffff16815260200190815260200160002060010160029054906101000a900460ff1660ff16145b5b806112ae57506002600860008673ffffffffffffffffffffffffffffffffffffffff1673ffffffffffffffffffffffffffffffffffffffff16815260200190815260200160002060010160019054906101000a900460ff1660ff161480156112ad57506002600860008673ffffffffffffffffffffffffffffffffffffffff1673ffffffffffffffffffffffffffffffffffffffff16815260200190815260200160002060010160029054906101000a900460ff1660ff16145b5b91506000600860008673ffffffffffffffffffffffffffffffffffffffff1673ffffffffffffffffffffffffffffffffffffffff1681526020019081526020016000206000015414801561135457506000600860008673ffffffffffffffffffffffffffffffffffffffff1673ffffffffffffffffffffffffffffffffffffffff16815260200190815260200160002060010160009054906101000a900460ff1660ff16145b80156113b257506000600860008673ffffffffffffffffffffffffffffffffffffffff1673ffffffffffffffffffffffffffffffffffffffff16815260200190815260200160002060010160019054906101000a900460ff1660ff16145b801561141057506000600860008673ffffffffffffffffffffffffffffffffffffffff1673ffffffffffffffffffffffffffffffffffffffff16815260200190815260200160002060010160029054906101000a900460ff1660ff16145b9050828061141b5750815b806114235750805b151561142e57600080fd5b60a060405190810160405280868152602001600060ff168152602001600060ff168152602001600060ff16815260200160001515815250600860008673ffffffffffffffffffffffffffffffffffffffff1673ffffffffffffffffffffffffffffffffffffffff1681526020019081526020016000206000820151816000015560208201518160010160006101000a81548160ff021916908360ff16021790555060408201518160010160016101000a81548160ff021916908360ff16021790555060608201518160010160026101000a81548160ff021916908360ff16021790555060808201518160010160036101000a81548160ff021916908315150217905550905050846006540160068190555060098054806001018281611553919061387d565b9160005260206000209001600086909190916101000a81548173ffffffffffffffffffffffffffffffffffffffff021916908373ffffffffffffffffffffffffffffffffffffffff160217905550508373ffffffffffffffffffffffffffffffffffffffff167f9502d7618553b38b99edbe5d1547756cc9ab18db5ddd0674b051490ca4e2fb4c866040518082815260200191505060405180910390a25050505050565b6000600654905090565b600080600060038110151561161257fe5b0160009054906101000a900473ffffffffffffffffffffffffffffffffffffffff1673ffffffffffffffffffffffffffffffffffffffff168373ffffffffffffffffffffffffffffffffffffffff1614806116c957506000600160038110151561167857fe5b0160009054906101000a900473ffffffffffffffffffffffffffffffffffffffff1673ffffffffffffffffffffffffffffffffffffffff168373ffffffffffffffffffffffffffffffffffffffff16145b806117305750600060026003811015156116df57fe5b0160009054906101000a900473ffffffffffffffffffffffffffffffffffffffff1673ffffffffffffffffffffffffffffffffffffffff168373ffffffffffffffffffffffffffffffffffffffff16145b151561173b57600080fd5b6000600860008473ffffffffffffffffffffffffffffffffffffffff1673ffffffffffffffffffffffffffffffffffffffff168152602001908152602001600020600001541415151561178d57600080fd5b60008060038110151561179c57fe5b0160009054906101000a900473ffffffffffffffffffffffffffffffffffffffff1673ffffffffffffffffffffffffffffffffffffffff168373ffffffffffffffffffffffffffffffffffffffff16141561184b57600860008373ffffffffffffffffffffffffffffffffffffffff1673ffffffffffffffffffffffffffffffffffffffff16815260200190815260200160002060010160009054906101000a900460ff1660ff169050611960565b6000600160038110151561185b57fe5b0160009054906101000a900473ffffffffffffffffffffffffffffffffffffffff1673ffffffffffffffffffffffffffffffffffffffff168373ffffffffffffffffffffffffffffffffffffffff16141561190a57600860008373ffffffffffffffffffffffffffffffffffffffff1673ffffffffffffffffffffffffffffffffffffffff16815260200190815260200160002060010160019054906101000a900460ff1660ff169050611960565b600860008373ffffffffffffffffffffffffffffffffffffffff1673ffffffffffffffffffffffffffffffffffffffff16815260200190815260200160002060010160029054906101000a900460ff1660ff1690505b92915050565b6000600360009054906101000a900473ffffffffffffffffffffffffffffffffffffffff16905090565b6000806000806000806000806003811015156119a857fe5b0160009054906101000a900473ffffffffffffffffffffffffffffffffffffffff1673ffffffffffffffffffffffffffffffffffffffff163373ffffffffffffffffffffffffffffffffffffffff161480611a5f575060006001600381101515611a0e57fe5b0160009054906101000a900473ffffffffffffffffffffffffffffffffffffffff1673ffffffffffffffffffffffffffffffffffffffff163373ffffffffffffffffffffffffffffffffffffffff16145b80611ac6575060006002600381101515611a7557fe5b0160009054906101000a900473ffffffffffffffffffffffffffffffffffffffff1673ffffffffffffffffffffffffffffffffffffffff163373ffffffffffffffffffffffffffffffffffffffff16145b1515611ad157600080fd5b6000600860008973ffffffffffffffffffffffffffffffffffffffff1673ffffffffffffffffffffffffffffffffffffffff1681526020019081526020016000206000015414151515611b2357600080fd5b339550600080600381101515611b3557fe5b0160009054906101000a900473ffffffffffffffffffffffffffffffffffffffff1673ffffffffffffffffffffffffffffffffffffffff168673ffffffffffffffffffffffffffffffffffffffff16148015611be357506000600860008973ffffffffffffffffffffffffffffffffffffffff1673ffffffffffffffffffffffffffffffffffffffff16815260200190815260200160002060010160009054906101000a900460ff1660ff16145b15611cf0576002600860008973ffffffffffffffffffffffffffffffffffffffff1673ffffffffffffffffffffffffffffffffffffffff16815260200190815260200160002060010160006101000a81548160ff021916908360ff1602179055508673ffffffffffffffffffffffffffffffffffffffff168673ffffffffffffffffffffffffffffffffffffffff167ff810df3b626605dbc005192086f67ae1f96ccb46b942d17dc90f159a1018298e600860008b73ffffffffffffffffffffffffffffffffffffffff1673ffffffffffffffffffffffffffffffffffffffff168152602001908152602001600020600001546040518082815260200191505060405180910390a361208d565b60006001600381101515611d0057fe5b0160009054906101000a900473ffffffffffffffffffffffffffffffffffffffff1673ffffffffffffffffffffffffffffffffffffffff168673ffffffffffffffffffffffffffffffffffffffff16148015611dae57506000600860008973ffffffffffffffffffffffffffffffffffffffff1673ffffffffffffffffffffffffffffffffffffffff16815260200190815260200160002060010160019054906101000a900460ff1660ff16145b15611ebb576002600860008973ffffffffffffffffffffffffffffffffffffffff1673ffffffffffffffffffffffffffffffffffffffff16815260200190815260200160002060010160016101000a81548160ff021916908360ff1602179055508673ffffffffffffffffffffffffffffffffffffffff168673ffffffffffffffffffffffffffffffffffffffff167ff810df3b626605dbc005192086f67ae1f96ccb46b942d17dc90f159a1018298e600860008b73ffffffffffffffffffffffffffffffffffffffff1673ffffffffffffffffffffffffffffffffffffffff168152602001908152602001600020600001546040518082815260200191505060405180910390a361208c565b60006002600381101515611ecb57fe5b0160009054906101000a900473ffffffffffffffffffffffffffffffffffffffff1673ffffffffffffffffffffffffffffffffffffffff168673ffffffffffffffffffffffffffffffffffffffff16148015611f7957506000600860008973ffffffffffffffffffffffffffffffffffffffff1673ffffffffffffffffffffffffffffffffffffffff16815260200190815260200160002060010160029054906101000a900460ff1660ff16145b15612086576002600860008973ffffffffffffffffffffffffffffffffffffffff1673ffffffffffffffffffffffffffffffffffffffff16815260200190815260200160002060010160026101000a81548160ff021916908360ff1602179055508673ffffffffffffffffffffffffffffffffffffffff168673ffffffffffffffffffffffffffffffffffffffff167ff810df3b626605dbc005192086f67ae1f96ccb46b942d17dc90f159a1018298e600860008b73ffffffffffffffffffffffffffffffffffffffff1673ffffffffffffffffffffffffffffffffffffffff168152602001908152602001600020600001546040518082815260200191505060405180910390a361208b565b600080fd5b5b5b6002600860008973ffffffffffffffffffffffffffffffffffffffff1673ffffffffffffffffffffffffffffffffffffffff16815260200190815260200160002060010160009054906101000a900460ff1660ff1614801561219e57506002600860008973ffffffffffffffffffffffffffffffffffffffff1673ffffffffffffffffffffffffffffffffffffffff16815260200190815260200160002060010160019054906101000a900460ff1660ff16148061219d57506002600860008973ffffffffffffffffffffffffffffffffffffffff1673ffffffffffffffffffffffffffffffffffffffff16815260200190815260200160002060010160029054906101000a900460ff1660ff16145b5b8061225957506002600860008973ffffffffffffffffffffffffffffffffffffffff1673ffffffffffffffffffffffffffffffffffffffff16815260200190815260200160002060010160019054906101000a900460ff1660ff1614801561225857506002600860008973ffffffffffffffffffffffffffffffffffffffff1673ffffffffffffffffffffffffffffffffffffffff16815260200190815260200160002060010160029054906101000a900460ff1660ff16145b5b94506001600860008973ffffffffffffffffffffffffffffffffffffffff1673ffffffffffffffffffffffffffffffffffffffff16815260200190815260200160002060010160009054906101000a900460ff1660ff1614801561236c57506001600860008973ffffffffffffffffffffffffffffffffffffffff1673ffffffffffffffffffffffffffffffffffffffff16815260200190815260200160002060010160019054906101000a900460ff1660ff16148061236b57506001600860008973ffffffffffffffffffffffffffffffffffffffff1673ffffffffffffffffffffffffffffffffffffffff16815260200190815260200160002060010160029054906101000a900460ff1660ff16145b5b8061242757506001600860008973ffffffffffffffffffffffffffffffffffffffff1673ffffffffffffffffffffffffffffffffffffffff16815260200190815260200160002060010160019054906101000a900460ff1660ff1614801561242657506001600860008973ffffffffffffffffffffffffffffffffffffffff1673ffffffffffffffffffffffffffffffffffffffff16815260200190815260200160002060010160029054906101000a900460ff1660ff16145b5b9350838061244457508480156124435750600060098054905014155b5b156128c75760016009805490501480156124c457508673ffffffffffffffffffffffffffffffffffffffff166009600081548110151561248057fe5b906000526020600020900160009054906101000a900473ffffffffffffffffffffffffffffffffffffffff1673ffffffffffffffffffffffffffffffffffffffff16145b1561261e5760096001600980549050038154811015156124e057fe5b906000526020600020900160006101000a81549073ffffffffffffffffffffffffffffffffffffffff0219169055600980548091906001900361252391906138bd565b5083156125c557600860008873ffffffffffffffffffffffffffffffffffffffff1673ffffffffffffffffffffffffffffffffffffffff1681526020019081526020016000206000015460055401600581905550600860008873ffffffffffffffffffffffffffffffffffffffff1673ffffffffffffffffffffffffffffffffffffffff16815260200190815260200160002060000154600654036006819055505b841561261957600860008873ffffffffffffffffffffffffffffffffffffffff1673ffffffffffffffffffffffffffffffffffffffff16815260200190815260200160002060000154600654036006819055505b6128c6565b600092505b600160098054905003831115156127ac578673ffffffffffffffffffffffffffffffffffffffff1660098481548110151561265a57fe5b906000526020600020900160009054906101000a900473ffffffffffffffffffffffffffffffffffffffff1673ffffffffffffffffffffffffffffffffffffffff16141561279f5782915060019050831561274a57600860008873ffffffffffffffffffffffffffffffffffffffff1673ffffffffffffffffffffffffffffffffffffffff1681526020019081526020016000206000015460055401600581905550600860008873ffffffffffffffffffffffffffffffffffffffff1673ffffffffffffffffffffffffffffffffffffffff16815260200190815260200160002060000154600654036006819055505b841561279e57600860008873ffffffffffffffffffffffffffffffffffffffff1673ffffffffffffffffffffffffffffffffffffffff16815260200190815260200160002060000154600654036006819055505b5b8280600101935050612623565b80156128c5578192505b600160098054905003831015612869576009600184018154811015156127d857fe5b906000526020600020900160009054906101000a900473ffffffffffffffffffffffffffffffffffffffff1660098481548110151561281357fe5b906000526020600020900160006101000a81548173ffffffffffffffffffffffffffffffffffffffff021916908373ffffffffffffffffffffffffffffffffffffffff16021790555082806001019350506127b6565b600960016009805490500381548110151561288057fe5b906000526020600020900160006101000a81549073ffffffffffffffffffffffffffffffffffffffff021916905560098054809190600190036128c391906138bd565b505b5b5b50505050505050565b6000600860008373ffffffffffffffffffffffffffffffffffffffff1673ffffffffffffffffffffffffffffffffffffffff168152602001908152602001600020600001549050919050565b6000600554905090565b60008060008060008060008060038110151561293e57fe5b0160009054906101000a900473ffffffffffffffffffffffffffffffffffffffff1673ffffffffffffffffffffffffffffffffffffffff163373ffffffffffffffffffffffffffffffffffffffff1614806129f55750600060016003811015156129a457fe5b0160009054906101000a900473ffffffffffffffffffffffffffffffffffffffff1673ffffffffffffffffffffffffffffffffffffffff163373ffffffffffffffffffffffffffffffffffffffff16145b80612a5c575060006002600381101515612a0b57fe5b0160009054906101000a900473ffffffffffffffffffffffffffffffffffffffff1673ffffffffffffffffffffffffffffffffffffffff163373ffffffffffffffffffffffffffffffffffffffff16145b1515612a6757600080fd5b6000600860008973ffffffffffffffffffffffffffffffffffffffff1673ffffffffffffffffffffffffffffffffffffffff1681526020019081526020016000206000015414151515612ab957600080fd5b339550600080600381101515612acb57fe5b0160009054906101000a900473ffffffffffffffffffffffffffffffffffffffff1673ffffffffffffffffffffffffffffffffffffffff168673ffffffffffffffffffffffffffffffffffffffff16148015612b7957506000600860008973ffffffffffffffffffffffffffffffffffffffff1673ffffffffffffffffffffffffffffffffffffffff16815260200190815260200160002060010160009054906101000a900460ff1660ff16145b15612c86576001600860008973ffffffffffffffffffffffffffffffffffffffff1673ffffffffffffffffffffffffffffffffffffffff16815260200190815260200160002060010160006101000a81548160ff021916908360ff1602179055508673ffffffffffffffffffffffffffffffffffffffff168673ffffffffffffffffffffffffffffffffffffffff167f6785be290ed8ae6f56ea596a5b8b77b39d1c96fa2f2d17de1c58be88bb67af4d600860008b73ffffffffffffffffffffffffffffffffffffffff1673ffffffffffffffffffffffffffffffffffffffff168152602001908152602001600020600001546040518082815260200191505060405180910390a3613023565b60006001600381101515612c9657fe5b0160009054906101000a900473ffffffffffffffffffffffffffffffffffffffff1673ffffffffffffffffffffffffffffffffffffffff168673ffffffffffffffffffffffffffffffffffffffff16148015612d4457506000600860008973ffffffffffffffffffffffffffffffffffffffff1673ffffffffffffffffffffffffffffffffffffffff16815260200190815260200160002060010160019054906101000a900460ff1660ff16145b15612e51576001600860008973ffffffffffffffffffffffffffffffffffffffff1673ffffffffffffffffffffffffffffffffffffffff16815260200190815260200160002060010160016101000a81548160ff021916908360ff1602179055508673ffffffffffffffffffffffffffffffffffffffff168673ffffffffffffffffffffffffffffffffffffffff167f6785be290ed8ae6f56ea596a5b8b77b39d1c96fa2f2d17de1c58be88bb67af4d600860008b73ffffffffffffffffffffffffffffffffffffffff1673ffffffffffffffffffffffffffffffffffffffff168152602001908152602001600020600001546040518082815260200191505060405180910390a3613022565b60006002600381101515612e6157fe5b0160009054906101000a900473ffffffffffffffffffffffffffffffffffffffff1673ffffffffffffffffffffffffffffffffffffffff168673ffffffffffffffffffffffffffffffffffffffff16148015612f0f57506000600860008973ffffffffffffffffffffffffffffffffffffffff1673ffffffffffffffffffffffffffffffffffffffff16815260200190815260200160002060010160029054906101000a900460ff1660ff16145b1561301c576001600860008973ffffffffffffffffffffffffffffffffffffffff1673ffffffffffffffffffffffffffffffffffffffff16815260200190815260200160002060010160026101000a81548160ff021916908360ff1602179055508673ffffffffffffffffffffffffffffffffffffffff168673ffffffffffffffffffffffffffffffffffffffff167f6785be290ed8ae6f56ea596a5b8b77b39d1c96fa2f2d17de1c58be88bb67af4d600860008b73ffffffffffffffffffffffffffffffffffffffff1673ffffffffffffffffffffffffffffffffffffffff168152602001908152602001600020600001546040518082815260200191505060405180910390a3613021565b600080fd5b5b5b6002600860008973ffffffffffffffffffffffffffffffffffffffff1673ffffffffffffffffffffffffffffffffffffffff16815260200190815260200160002060010160009054906101000a900460ff1660ff1614801561313457506002600860008973ffffffffffffffffffffffffffffffffffffffff1673ffffffffffffffffffffffffffffffffffffffff16815260200190815260200160002060010160019054906101000a900460ff1660ff16148061313357506002600860008973ffffffffffffffffffffffffffffffffffffffff1673ffffffffffffffffffffffffffffffffffffffff16815260200190815260200160002060010160029054906101000a900460ff1660ff16145b5b806131ef57506002600860008973ffffffffffffffffffffffffffffffffffffffff1673ffffffffffffffffffffffffffffffffffffffff16815260200190815260200160002060010160019054906101000a900460ff1660ff161480156131ee57506002600860008973ffffffffffffffffffffffffffffffffffffffff1673ffffffffffffffffffffffffffffffffffffffff16815260200190815260200160002060010160029054906101000a900460ff1660ff16145b5b94506001600860008973ffffffffffffffffffffffffffffffffffffffff1673ffffffffffffffffffffffffffffffffffffffff16815260200190815260200160002060010160009054906101000a900460ff1660ff1614801561330257506001600860008973ffffffffffffffffffffffffffffffffffffffff1673ffffffffffffffffffffffffffffffffffffffff16815260200190815260200160002060010160019054906101000a900460ff1660ff16148061330157506001600860008973ffffffffffffffffffffffffffffffffffffffff1673ffffffffffffffffffffffffffffffffffffffff16815260200190815260200160002060010160029054906101000a900460ff1660ff16145b5b806133bd57506001600860008973ffffffffffffffffffffffffffffffffffffffff1673ffffffffffffffffffffffffffffffffffffffff16815260200190815260200160002060010160019054906101000a900460ff1660ff161480156133bc57506001600860008973ffffffffffffffffffffffffffffffffffffffff1673ffffffffffffffffffffffffffffffffffffffff16815260200190815260200160002060010160029054906101000a900460ff1660ff16145b5b935083806133da57508480156133d95750600060098054905014155b5b1561385d57600160098054905014801561345a57508673ffffffffffffffffffffffffffffffffffffffff166009600081548110151561341657fe5b906000526020600020900160009054906101000a900473ffffffffffffffffffffffffffffffffffffffff1673ffffffffffffffffffffffffffffffffffffffff16145b156135b457600960016009805490500381548110151561347657fe5b906000526020600020900160006101000a81549073ffffffffffffffffffffffffffffffffffffffff021916905560098054809190600190036134b991906138bd565b50831561355b57600860008873ffffffffffffffffffffffffffffffffffffffff1673ffffffffffffffffffffffffffffffffffffffff1681526020019081526020016000206000015460055401600581905550600860008873ffffffffffffffffffffffffffffffffffffffff1673ffffffffffffffffffffffffffffffffffffffff16815260200190815260200160002060000154600654036006819055505b84156135af57600860008873ffffffffffffffffffffffffffffffffffffffff1673ffffffffffffffffffffffffffffffffffffffff16815260200190815260200160002060000154600654036006819055505b61385c565b600092505b60016009805490500383111515613742578673ffffffffffffffffffffffffffffffffffffffff166009848154811015156135f057fe5b906000526020600020900160009054906101000a900473ffffffffffffffffffffffffffffffffffffffff1673ffffffffffffffffffffffffffffffffffffffff161415613735578291506001905083156136e057600860008873ffffffffffffffffffffffffffffffffffffffff1673ffffffffffffffffffffffffffffffffffffffff1681526020019081526020016000206000015460055401600581905550600860008873ffffffffffffffffffffffffffffffffffffffff1673ffffffffffffffffffffffffffffffffffffffff16815260200190815260200160002060000154600654036006819055505b841561373457600860008873ffffffffffffffffffffffffffffffffffffffff1673ffffffffffffffffffffffffffffffffffffffff16815260200190815260200160002060000154600654036006819055505b5b82806001019350506135b9565b801561385b578192505b6001600980549050038310156137ff5760096001840181548110151561376e57fe5b906000526020600020900160009054906101000a900473ffffffffffffffffffffffffffffffffffffffff166009848154811015156137a957fe5b906000526020600020900160006101000a81548173ffffffffffffffffffffffffffffffffffffffff021916908373ffffffffffffffffffffffffffffffffffffffff160217905550828060010193505061374c565b600960016009805490500381548110151561381657fe5b906000526020600020900160006101000a81549073ffffffffffffffffffffffffffffffffffffffff0219169055600980548091906001900361385991906138bd565b505b5b5b50505050505050565b6000600360149054906101000a900460ff16905090565b8154818355818115116138a4578183600052602060002091820191016138a391906138e9565b5b505050565b602060405190810160405280600081525090565b8154818355818115116138e4578183600052602060002091820191016138e391906138e9565b5b505050565b61390b91905b808211156139075760008160009055506001016138ef565b5090565b905600a165627a7a723058208b2b3797319fdda25df2934f2e21794ab0a2e748bf8ca952c1ec7fa33e536afc0029",
  "source": "pragma solidity ^0.4.18;\n\nimport \"./Signed.sol\";\n\ncontract MultiSig is Signed {\n    event ReceivedContribution(address indexed _contributor, uint _valueInWei);\n    event ProposalSubmitted(address indexed _beneficiary, uint _valueInWei);\n    event ProposalApproved(address indexed _approver, address indexed _beneficiary, uint _valueInWei);\n    event ProposalRejected(address indexed _rejecter, address indexed _beneficiary, uint _valueInWei);\n    event WithdrawPerformed(address indexed _beneficiary, uint _valueInWei);\n    \n    struct Prop{\n        uint _value;\n        uint8 signer1;\n        uint8 signer2;\n        uint8 signer3;\n        bool hasWithdrawn;\n    }\n    \n    \n    bool isOpen;\n    uint256 _balance;\n    uint256 _approved;\n    uint256 _proposed;\n    \n    mapping (address => uint) contributors;\n    mapping (address => Prop) proposals;\n    \n    address[] openBeneficiaries;\n    address[] _contributors;\n   \n  \n    \n   function() payable public{\n        require(isOpen==false);\n            require(msg.value>0);\n            uint amt=contributors[msg.sender];\n            if(amt==0){\n                _contributors.push(msg.sender);\n            }\n            amt+=msg.value;\n            contributors[msg.sender]=amt;\n            \n             ReceivedContribution(msg.sender,msg.value);\n    }\n\n  \n  function endContributionPeriod() external onlySigner{\n      isOpen=true;\n      _balance=address(this).balance;\n      \n  }\n  uint _check;\n  function submitProposal(uint _valueInWei) external{\n      require(isOpen==true);\n      require(_valueInWei>0);\n      _check=_valueInWei*100;\n      _check=_check/_balance;\n      require(_check<=10);\n      address addr=msg.sender;\n      require(_balance>=_approved+_proposed+_valueInWei);\n      require(addr!=signers[0] && addr!=signers[1] &&  addr!=signers[2]);\n      bool x=proposals[addr].hasWithdrawn;\n      bool y=(proposals[addr].signer1==2) && (proposals[addr].signer2==2 || proposals[addr].signer3==2) || (proposals[addr].signer2==2 && proposals[addr].signer3==2);\n      bool z=(proposals[addr]._value==0 && proposals[addr].signer1==0  && proposals[addr].signer2==0  && proposals[addr].signer3==0 );\n      require(x || y || z);\n      proposals[addr]=Prop(_valueInWei,0,0,0,false);\n      _proposed=_proposed+_valueInWei;\n      openBeneficiaries.push(addr);\n      ProposalSubmitted(addr, _valueInWei);\n      \n  }\n  \n\n  function listOpenBeneficiariesProposals() external view returns (address[]){\n      return openBeneficiaries;\n      \n  }\n\n  function getBeneficiaryProposal(address _beneficiary) external view returns (uint){\n      return proposals[_beneficiary]._value;\n  }\n\n  function listContributors() external view returns (address[]){\n      return _contributors;\n  }\n\n  function getContributorAmount(address _contributor) external view returns (uint){\n      return contributors[_contributor];\n  }\n\n  function approve(address _beneficiary) external onlySigner{\n      require(proposals[_beneficiary]._value!=0);\n      address _addr=msg.sender;\n      if(_addr==signers[0] && proposals[_beneficiary].signer1==0){\n          proposals[_beneficiary].signer1=1;\n          ProposalApproved(_addr, _beneficiary, proposals[_beneficiary]._value);\n      }\n      else if(_addr==signers[1] && proposals[_beneficiary].signer2==0){\n          proposals[_beneficiary].signer2=1;\n          ProposalApproved(_addr, _beneficiary, proposals[_beneficiary]._value);\n      }\n      else if(_addr==signers[2] && proposals[_beneficiary].signer3==0){\n          proposals[_beneficiary].signer3=1;\n          ProposalApproved(_addr, _beneficiary, proposals[_beneficiary]._value);\n      }\n      else{\n          revert();\n      }\n      bool z=(proposals[_beneficiary].signer1==2) && (proposals[_beneficiary].signer2==2 || proposals[_beneficiary].signer3==2) || (proposals[_beneficiary].signer2==2 && proposals[_beneficiary].signer3==2);\n      bool x=(proposals[_beneficiary].signer1==1) && (proposals[_beneficiary].signer2==1 || proposals[_beneficiary].signer3==1) || (proposals[_beneficiary].signer2==1 && proposals[_beneficiary].signer3==1);\n      if(x || z && openBeneficiaries.length!=0){\n      uint j; uint index;\n      bool check;\n      if(openBeneficiaries.length==1 && openBeneficiaries[0]==_beneficiary){\n         delete openBeneficiaries[openBeneficiaries.length-1];\n         openBeneficiaries.length--;\n         if(x){ _approved=_approved+proposals[_beneficiary]._value;\n                _proposed=_proposed-proposals[_beneficiary]._value;\n         }\n         if(z){ _proposed=_proposed-proposals[_beneficiary]._value;}\n      }else{\n      for( j=0;j<=openBeneficiaries.length-1;j++){\n          if(openBeneficiaries[j]==_beneficiary){\n              index=j;\n              check=true;\n               if(x){ _approved=_approved+proposals[_beneficiary]._value;\n                _proposed=_proposed-proposals[_beneficiary]._value;\n                 }\n               if(z){ _proposed=_proposed-proposals[_beneficiary]._value;}\n                  }\n      }\n        if(check){\n            for ( j = index; j<openBeneficiaries.length-1; j++){\n                openBeneficiaries[j] = openBeneficiaries[j+1];\n            }\n            delete openBeneficiaries[openBeneficiaries.length-1];\n            openBeneficiaries.length--;\n        }\n        \n       }\n      \n  }\n      \n  }\n  \n\n\n function reject(address _beneficiary) external onlySigner{\n      require(proposals[_beneficiary]._value!=0);\n      address _addr=msg.sender;\n      if(_addr==signers[0] && proposals[_beneficiary].signer1==0){\n          proposals[_beneficiary].signer1=2;\n           ProposalRejected(_addr, _beneficiary, proposals[_beneficiary]._value);\n      }\n      else if(_addr==signers[1] && proposals[_beneficiary].signer2==0){\n          proposals[_beneficiary].signer2=2;\n          ProposalRejected(_addr, _beneficiary, proposals[_beneficiary]._value);\n      }\n      else if(_addr==signers[2] && proposals[_beneficiary].signer3==0){\n          proposals[_beneficiary].signer3=2;\n          ProposalRejected(_addr, _beneficiary, proposals[_beneficiary]._value);\n      }\n      else{\n          revert();\n      }\n      bool z=(proposals[_beneficiary].signer1==2) && (proposals[_beneficiary].signer2==2 || proposals[_beneficiary].signer3==2) || (proposals[_beneficiary].signer2==2 && proposals[_beneficiary].signer3==2);\n      bool x=(proposals[_beneficiary].signer1==1) && (proposals[_beneficiary].signer2==1 || proposals[_beneficiary].signer3==1) || (proposals[_beneficiary].signer2==1 && proposals[_beneficiary].signer3==1);\n      if(x || z && openBeneficiaries.length!=0){\n      uint j; uint index;\n      bool check;\n      if(openBeneficiaries.length==1 && openBeneficiaries[0]==_beneficiary){\n         delete openBeneficiaries[openBeneficiaries.length-1];\n         openBeneficiaries.length--;\n         if(x){ _approved=_approved+proposals[_beneficiary]._value;\n                _proposed=_proposed-proposals[_beneficiary]._value;\n         }\n         if(z){ _proposed=_proposed-proposals[_beneficiary]._value;}\n      }else{\n      for( j=0;j<=openBeneficiaries.length-1;j++){\n          if(openBeneficiaries[j]==_beneficiary){\n              index=j;\n              check=true;\n               if(x){ _approved=_approved+proposals[_beneficiary]._value;\n                _proposed=_proposed-proposals[_beneficiary]._value;\n                 }\n               if(z){ _proposed=_proposed-proposals[_beneficiary]._value;}\n                  }\n      }\n        if(check){\n            for ( j = index; j<openBeneficiaries.length-1; j++){\n                openBeneficiaries[j] = openBeneficiaries[j+1];\n            }\n            delete openBeneficiaries[openBeneficiaries.length-1];\n            openBeneficiaries.length--;\n        }\n        \n       }\n      \n  }\n      \n  }\n\n  function withdraw(uint _valueInWei) external{\n    address addr=msg.sender;\n    require(proposals[addr]._value!=0);  \n    require(proposals[addr].signer1==1 && (proposals[addr].signer2==1 || proposals[addr].signer3==1) || (proposals[addr].signer2==1 && proposals[addr].signer3==1));\n    require(_valueInWei<address(this).balance);\n    require(_valueInWei<=proposals[addr]._value);\n    require(proposals[addr].hasWithdrawn!=true);\n    addr.transfer(_valueInWei);\n    if(_valueInWei==proposals[addr]._value){\n        proposals[addr].hasWithdrawn=true;\n    }else{\n        proposals[addr]._value=proposals[addr]._value -_valueInWei;\n    }\n     WithdrawPerformed(msg.sender, _valueInWei);\n     \n  }\n  \n \n  \n  function owner() external view returns(address){\n      return creator;\n  }\n  function open() external view returns(bool){\n      return isOpen;\n  }\n  function getBal() external view returns(uint){\n      return address(this).balance;\n  }\n  function getcheckl() external view returns(uint){\n      return _check;\n  }\n  \n  function getBalance() external view returns(uint){\n      return _balance;\n  }\n  function getApproved() external view returns(uint){\n      return _approved;\n  }\n  function getProposed() external view returns(uint){\n      return _proposed;\n  }\n  \n  function getSignerVote(address _signer, address _beneficiary) view external returns(uint){\n      require(_signer==signers[0] || _signer==signers[1] || _signer==signers[2]);\n      require(proposals[_beneficiary]._value!=0);\n      if(_signer==signers[0]){\n         return uint(proposals[_beneficiary].signer1);\n      }\n      else if(_signer==signers[1]){\n       return uint(proposals[_beneficiary].signer2);\n      }\n      else{\n         return uint(proposals[_beneficiary].signer3);\n      }\n      \n  }\n  \n\n}\n\n",
  "sourcePath": "E:\\Important documents\\Blockchain\\truffle_eth_class2-master\\s12\\copy\\already\\contracts\\MultiSig.sol",
  "compiler": {
    "name": "solc",
    "version": "0.4.19+commit.c4cbbb05.Emscripten.clang"
  },
  "schemaVersion": "2.0.0",
  "updatedAt": "2018-07-10T18:04:29.263Z"
}