{
  "contractName": "Signed",
  "abi": [
    {
      "constant": true,
      "inputs": [],
      "name": "creator",
      "outputs": [
        {
          "name": "",
          "type": "address"
        }
      ],
      "payable": false,
      "stateMutability": "view",
      "type": "function"
    }
  ],
  "bytecode": "0x60606040526060604051908101604052807361127d6a05923f8e20f5ab5c2574426ac366d67e73ffffffffffffffffffffffffffffffffffffffff16815260200173ed3f196c4d31b5ca135f42e9ca69906cdc0e7fa573ffffffffffffffffffffffffffffffffffffffff16815260200173fb6d65ae169cb92a184fe6c1dba96b7733b02e5073ffffffffffffffffffffffffffffffffffffffff1681525060009060036100ae929190610100565b5033600360006101000a81548173ffffffffffffffffffffffffffffffffffffffff021916908373ffffffffffffffffffffffffffffffffffffffff16021790555034156100fb57600080fd5b6101c0565b826003810192821561016c579160200282015b8281111561016b5782518260006101000a81548173ffffffffffffffffffffffffffffffffffffffff021916908373ffffffffffffffffffffffffffffffffffffffff16021790555091602001919060010190610113565b5b509050610179919061017d565b5090565b6101bd91905b808211156101b957600081816101000a81549073ffffffffffffffffffffffffffffffffffffffff021916905550600101610183565b5090565b90565b60e8806101ce6000396000f300606060405260043610603f576000357c0100000000000000000000000000000000000000000000000000000000900463ffffffff16806302d05d3f146044575b600080fd5b3415604e57600080fd5b60546096565b604051808273ffffffffffffffffffffffffffffffffffffffff1673ffffffffffffffffffffffffffffffffffffffff16815260200191505060405180910390f35b600360009054906101000a900473ffffffffffffffffffffffffffffffffffffffff16815600a165627a7a723058203c0d444000502294d9a53e1ad403702039874edca1aa232580e4f5cdf310d8940029",
  "source": "pragma solidity ^0.4.18;\r\n\r\ncontract Signed {\r\n    \r\n  address[3] signers=[ 0x61127d6a05923f8e20f5ab5c2574426ac366d67e,0xed3f196c4d31b5ca135f42e9ca69906cdc0e7fa5,0xfb6d65ae169cb92a184fe6c1dba96b7733b02e50];\r\n       \r\n       \r\n        \r\n    address public creator=msg.sender;\r\n\r\n  modifier onlySigner {\r\n    require(msg.sender == signers[0] || msg.sender == signers[1] || msg.sender == signers[2]);\r\n    _;\r\n  }\r\n\r\n}",
  "sourcePath": "E:\\Important documents\\Blockchain\\truffle_eth_class2-master\\s12\\copy\\already\\contracts\\Signed.sol",
  "compiler": {
    "name": "solc",
    "version": "0.4.19+commit.c4cbbb05.Emscripten.clang"
  },
  "schemaVersion": "2.0.0",
  "updatedAt": "2018-07-10T18:07:32.427Z"
}